:1040000000100020B1540000B5990000B9990000DB
:10401000AD540000BD990000C5990000AD540000EA
:10402000AD540000AD540000AD540000AD5400008C
:10403000C99900000C3E0300AD540000AD540000CF
:10404000AD540000AD540000AD540000AD59000067
:10405000AD540000AD540000AD540000AD5400005C
:10406000AD540000AD54000051AD0000F552000009
:1040700001530000AD540000AD540000AD540000E9
:10408000AD540000AD540000AD540000AD5400002C
:10409000AD540000AD540000AD540000AD5400001C
:1040A000AD540000195D0000F95C0000AD54000043
:1040B000AD540000D5D20100AD5400009DDC0100DC
:1040C00041DC01003DDC010079D4010099DC0100F4
:1040D00045DC01005DDC010049DC01001DC301007D
:1040E000DDDC0100AD540000AD540000AD54000013
:1040F000AD540000F5880000AD540000AD54000040
:10410000AD540000AD540000AD540000AD540000AB
:10411000AD540000AD540000AD540000AD5400009B
:10412000AD540000AD540000AD540000AD5400008B
:10413000AD54000010B5054C237833B9044B13B1CE
:10414000044800E000BF0123237010BD2C1700209D
:1041500000000000B8A7030008B5034B1BB10349DA
:10416000034800E000BF08BD000000003017002039
:10417000B8A70300A3F5803A704700BF174B002B88
:1041800008BF134B9D46FFF7F5FF00218B460F46F6
:104190001348144A121A2BF074FA0E4B002B00D05D
:1041A00098470D4B002B00D09847002000210400B9
:1041B0000D000D48002802D00C4800E000BF2BF095
:1041C000FDF92000290000F0E5FA2BF0E3F900BF2B
:1041D00000000800000000000000000000100020A7
:1041E0002C170020644100200000000000000000A7
:1041F00007B5054B0090054A0420054909F0E6FE85
:1042000003B05DF804FB00BF577E030068FF0200A7
:104210006DFF02001EF058B870B50146214802F04B
:1042200013FE1A2504461F4E012C21D1013D05D154
:104230001D4900200CF036FF012070BD204604F01F
:10424000CCFF304602F0E4FC0446EDE71749F0E706
:104250001749EEE71749ECE71749EAE71749E8E796
:104260002246002016490CF01DFFE5E72046E4E752
:10427000002CFBD0002013490CF014FF0020124941
:104280000CF028FF631D042BEAD801A252F823F09A
:104290005D420000594200005542000051420000BA
:1042A0004D4200000000015A84FF0200CCFF0200D2
:1042B000DAFF02000B0003002C00030038000300AB
:1042C00041000300B0FF0200C0FF02007FB50123E0
:1042D0004000ADF8040001A8ADF806300291ADF839
:1042E0000C20FFF799FF07B05DF804FB07B58DF8C8
:1042F00004108DF8052001A90222FFF7E7FF03B0A3
:104300005DF804FB7FB54000ADF804000420049381
:104310009DF82030ADF8060068440291ADF80C20FD
:10432000ADF81430FFF778FF07B05DF804FB1FB558
:104330008DF80C10009303A913460122FFF7E2FF4A
:1043400005B05DF804FB000037B5002501220446E6
:104350002B4629461046CDE9005502F069FB22465E
:10436000284605490CF09EFE631E5C425C41034BEF
:104370001C7003B030BD00BF54000300491700207B
:10438000F0B5032101250224714E89B0084602AF21
:1043900000230422C6F84054C6F8404402F08CFBC7
:1043A00001F080FC6B496C48D1F8A024024042F433
:1043B00080222243C1F8A024D1F89C340822034073
:1043C00043F440332343C1F89C3403232046C1F80F
:1043D00098342B46042102F06FFB2B46204608221E
:1043E000032102F069FB2B460B220421032002F07B
:1043F00063FB224600242B462846002102F05CFB8A
:104400002A462B46214628460195009402F010FBCF
:104410002846524901F05EFC40F201133B81504BAB
:1044200007F108014F483B61FC603C7502F0CEFB90
:1044300005F07EF9786005F081F97A6803464A490B
:1044400020460CF02FFE05F06DF9786005F084F938
:10445000102503467A68204644490CF023FE204686
:10446000434A44490CF01EFE0A20C6F8A05004F04E
:10447000B4FE2046404A41490CF014FE052004F0E9
:10448000ACFE3F4B3F4AC3F8A0503C4920460CF0DD
:1044900009FE052004F0A1FE0A20C6F8A05004F091
:1044A0009CFE354A354920460CF0FCFD0A2004F0FC
:1044B00094FE7F2000F0D8F9C0F30713012B08BF4A
:1044C00000F00F040246234600202F490CF0EAFDBD
:1044D00000202E490CF0E6FD00210822084607F1D5
:1044E000080300F081FD08286D4602462AD17A7A39
:1044F000F97A802A22D01BD8012A21D0244B2548C2
:10450000202A18BF03460091002023490CF0CAFD61
:10451000224B234A0020082C18BF1A4621490CF0D0
:10452000C1FDAD461C37BD46BDE8F04000F0E0B926
:104530001D4B1848C02A18BF0346E4E71B4BE2E7AF
:104540001B4BE0E700201B490CF0ACFDE0E700BF8F
:1045500000E0035000C00350FCFFF0FF494300009F
:10456000400D03000000015AB2000300C800030020
:10457000E8000300EC000300FC000300030103005B
:1045800000D003500B0103001301030035010300A9
:10459000890003007900030041010300A800030023
:1045A00091000300A60103007100030081000300D5
:1045B000690003006E0103002DE9F043624F89B0EA
:1045C0003B78002B00F09A800025604E357000F09B
:1045D0005BF9072000F048F9044602465C4928468A
:1045E0000CF060FD14F0200400F09F80284659492B
:1045F0000CF058FD284658490CF054FD2946284631
:1046000000F004F92946082000F000F929460920A5
:1046100000F0FCF8B021022000F0F8F80A2000F0C9
:1046200023F94E49024628460CF03CFD4C4C122121
:10463000382000F0EBF85F21232000F0E7F8257820
:10464000002D5BD10123237000F038F9062000F023
:104650000BF90390072000F007F9039A034641493C
:1046600028460CF01FFD0325DFF81091DFF81081BC
:1046700005A800F097FC00284BD000203A490CF028
:1046800011FD00209DF81F309DF8142037490CF0D3
:1046900009FD002036490CF01DFD0025DFF8E490EF
:1046A0000DF114089DF8143008F101089D4228DB33
:1046B000002030490CF0F6FC00202B490CF0F2FCF5
:1046C000062000F0D1F80390072000F0CDF8039AFF
:1046D0000346294900200CF0E5FC642004F07DFD30
:1046E00000F006F9002121700124234622462046CD
:1046F000CDE90014397002F09BF9347009B0BDE8BF
:10470000F0834946002098F800200CF0E3FC0135C6
:10471000C8E749460CF0C6FC404602F0E0FD0A201E
:1047200004F05BFD013DA3D1CAE7012500F0E0F8EC
:104730002B462A4621462846CDE900453C7002F02A
:1047400077F93570DAE700BF49170020981000208C
:10475000BF010300D8010300E101030004020300CC
:1047600048170020210203005F02030083020300B8
:10477000A10203007E410300B9020300A602030068
:104780000080015AFC7D0300014B1878704700BF80
:104790009810002008B506F0F8FAFFF7F1FD06F0D2
:1047A00001FBFFF709FF05F0BDFCF8E70B4610B56C
:1047B0005C1CE4B2202C114688B007D922460020A8
:1047C0000A4908B0BDE810400CF06CBC1A468DF8E0
:1047D00000000DF101002AF02DFF054B224669462D
:1047E0001878FFF773FD08B010BD00BFF602030094
:1047F0009910002007B501218DF807000DF107027F
:104800000020FFF7D3FF03B05DF804FB024B0A461C
:1048100001461878FFF76ABD9910002008B51149C4
:1048200000200CF03FFC1F20FFF7E4FF322004F0D3
:10483000D4FC0020FFF7DEFF7F210620FFF7E6FF14
:104840007F210720FFF7E2FF00210820FFF7DEFFAE
:1048500000210920FFF7DAFFBDE80840B02102205F
:10486000FFF7D4BF0F03030007B501460548012336
:104870000DF107020078FFF75AFD9DF8070003B01D
:104880005DF804FB9910002013B54220FFF7ECFF00
:1048900004464320FFF7E8FFE21C033CC31CD2B2EE
:1048A0000338E4B201920449C2B200940020DBB2A2
:1048B0000CF0F8FB02B010BD1A03030008B50B4A58
:1048C00012212820FFF772FF8E212820FFF79EFF7C
:1048D00012212920FFF79AFF39212A20FFF796FF9E
:1048E000BDE8084006212B20FFF790BF9A1000205A
:1048F0002DE9F347FFF792FFC0213F20FFF786FF26
:10490000FF214020FFF782FFC0214120FFF77EFFFB
:1049100089212820FFF77AFF00211F20FFF776FF6B
:1049200010212020FFF772FF00212420FFF76EFFE7
:1049300005212520FFF76AFFF8212320FFF766FFF6
:1049400040214320FFF762FF52213820FFF75EFF2E
:1049500003213920FFF75AFF01210020FFF756FFFE
:1049600000210846FFF752FFDFF83091B021022006
:10497000FFF74CFF12213820FFF748FF99F800306D
:10498000DFF81C81424F23B198F800300BB13B781F
:104990006BBB4220FFF768FF04464320FFF764FF2C
:1049A000E51EC21E03340330E4B2C6B25FFA82FAD7
:1049B000EDB2334652460020CDE9005435490CF0A3
:1049C00071FBA30003F0C00343EA0A0245EA841521
:1049D0002301EDB203F0C003334300202E490095BC
:1049E00089F8002088F800303D700CF05BFB3F2018
:1049F00099F80010FFF70AFF402098F80010FFF721
:104A000005FF41203978FFF701FF07211F20FFF73D
:104A1000FDFEF2212020FFF7F9FE00212420FFF700
:104A2000F5FE13212520FFF7F1FEDF212320FFF7FC
:104A3000EDFE40214320FFF7E9FE52213820FFF729
:104A4000E5FE03213920FFF7E1FE2320FFF70CFFED
:104A50009F28FAD10020FFF7CDFEB0210220FFF7FA
:104A6000D5FE7F210620FFF7D1FE7F210720FFF72B
:104A7000CDFE10210820FFF7C9FE60210920FFF7B5
:104A8000C5FE012002B0BDE8F047FFF7B3BE00BF8E
:104A90004A1700201A0303005D0303004C1700208F
:104AA0004B17002008B50220FFF7DEFEBDE80840E6
:104AB00040F01000C1B20220FFF7A8BE38B50A20AE
:104AC00004F08BFB0220FFF7CFFE05460420FFF722
:104AD000CBFE2B065DBF2D0205F4407242EA0004B6
:104AE00004B258BF24B22246002002490CF0DAFA80
:104AF000204638BD8C030300B0F5007F70B5044636
:104B00000BD80D460E18B54201D120B270BD05205C
:104B1000FFF7AAFE05F8010BF5E74FF0FF30F5E7C8
:104B2000B0F5007F70B504460BD80D460E18AE42A6
:104B300001D120B270BD052015F8011BFFF766FEFC
:104B4000F5E74FF0FF30F5E770B50D46002116464A
:104B500004460846FFF75AFEFFF7A4FF31462846F1
:104B6000FFF7DEFF2146BDE870400020FFF74EBE94
:104B700010B50446194900200CF0ACFA102C25D0D1
:104B80000BD8631EDAB2072A0DD8072B0BD8DFE843
:104B900003F011170A190A0A0A1B402C1AD0802C9C
:104BA0001AD0202C14D02246BDE8104000200C4919
:104BB0000CF078BA0B490020BDE810400CF072BA36
:104BC0000949F8E70949F6E70949F4E70949F2E72D
:104BD0000949F0E70949EEE70949ECE7A5030300B5
:104BE0003A040300B5030300C5030300D503030023
:104BF000E9030300F20303000804030013040300A5
:104C00002B0403001FB500248DF807002046ADF8E3
:104C10000E40FFF7EFFDFFF745FF0F212E20FFF7B6
:104C2000F5FD18212C20FFF7F1FD18212D20FFF7AD
:104C3000EDFD21460C20FFF7E9FD7F210620FFF75F
:104C4000E5FD3F210720FFF7E1FD06210820FFF7E2
:104C5000DDFD01210920FFF7D9FD11210F20FFF70C
:104C6000D5FD04211020FFF7D1FDFF211120FFF712
:104C7000CDFD04211220FFF7C9FDFF211320FFF70E
:104C8000C5FD012107200DF10702FFF75DFF072099
:104C9000FFF7EAFD10F0410FF9D00020FFF7AAFD61
:104CA0000620FFF7E1FD00F00603042B0BD010B93E
:104CB000002004B010BD0A20FFF7D6FD0028F7D071
:104CC000FFF756FFF4E7FFF7F9FE0228F0D10DF1E8
:104CD0000E01FFF711FF0020BDF80E2002490CF075
:104CE000E1F9BDF80E00E4E7550403002620FFF7C4
:104CF00089BF00002DE9F04F002787B080460020D3
:104D0000FFF778FDFFF7CEFE06210820FFF77EFDB6
:104D100001210920FFF77AFD11210F20FFF776FD11
:104D200004211020FFF772FDFF211120FFF76EFD17
:104D300004211220FFF76AFDFF211320FFF766FD13
:104D40000126BA46022ECDF810A0ADF814A08DF8B9
:104D500016A000F0A180032E0CBF4FF0970B4FF070
:104D6000930B18212C20FFF751FD18212D20FFF760
:104D70004DFD4FF0200900247F210620FFF746FD5E
:104D800004F007053F210720FFF740FD04F1200351
:104D90002E2045F008018DF811308DF810B0FFF786
:104DA00035FD210101F070010C20FFF72FFDE10816
:104DB000002D74D10231072004AAFFF7C5FE072099
:104DC000FFF752FD10F0410FF9D00020FFF712FD60
:104DD0000620FFF749FD00900A20FFF745FD054634
:104DE0000D20FFF741FD009B9A075AD500902846F9
:104DF000FFF7BEFE6D0757D50099080654D501F0A0
:104E00007F052B1903F00700C3F3C40257FA83F39D
:104E1000DB1018F803300DF11201034103F0010318
:104E20008340885C013403438B54E4B2FFF746FEB1
:104E300083B2052B184602A928BF05200093FFF76F
:104E40005BFE00214FEAD40E0DF112004B1C0193C2
:104E5000009BCAB29A422BD32C44E4B21F2C04D834
:104E600009F1FF3919F0FF0986D19DF813209DF84B
:104E700012309DF8165053409DF8142053409DF871
:104E8000152053409D4222D0434900200CF00AF9DE
:104E9000002007B0BDE8F08F4FF0950B61E70331BC
:104EA00089E713F00400F4D0C4F12005EDB2BDE7AA
:104EB00002F118030EEB020C0DEB030210F80C10BC
:104EC00012F8102C0A4300F80C200199BEE77F214C
:104ED0000620FFF79BFC3F210720FFF797FC70237C
:104EE00019212C208DF811308DF810B08DF8165046
:104EF000FFF78CFC19212D20FFF788FC04F0070137
:104F00002E2041F00801FFF781FC00210C20FFF763
:104F10007DFC072104AA0846FFF716FE0720FFF7CD
:104F2000A3FC10F0410FF9D00020FFF763FC06202E
:104F3000FFF79AFC810706D50A20FFF795FC420788
:104F400001D51649A1E7FFF7B9FDC0B2012801D08C
:104F500013499AE702A9FFF7CFFD9DF808305B07D8
:104F600010D5BDF81320013628F80720F6B29DF8B9
:104F7000152008EB0703042E9A7007F103077FF44E
:104F8000E1AE85E7DDF8123006EB4606701C48F806
:104F90000730C0B27DE700BF750403008A04030038
:104FA000A40403007FB50446FFF7A0FE0026B8B1B5
:104FB0000DF1030101A8CDE90166ADF80C60FFF722
:104FC00099FE031FDBB2062B05460BD8024601A94A
:104FD000601C2AF02FFB01209DF803302570E3723E
:104FE00004B070BD3046FBE773B51E460306154698
:104FF00037D48B18402B34DC01EB8010030A8DF87A
:1050000004308DF806208DF80500FFF74BFD0A20CF
:1050100004F0E3F801A90320FFF782FD0A2004F061
:10502000DCF80A210020FFF7F1FB0A2004F0D5F894
:10503000FFF744FD0446A3B29D42A8B20CD00A205B
:10504000FFF712FC20B1FFF793FDE0B202B070BD94
:1050500005490CF027F8F8E73146FFF74DFDC0B2DF
:10506000F4E70020F2E700BFBF04030030B50A4CAC
:105070000A4B22680A4D1A600A4B85B02B600A4B16
:10508000019303F045FC2B68029001A9206803936B
:1050900002F0E4FA05B030BDB81000203C24002036
:1050A00038240020AC100020403C0300014B18685D
:1050B00002F0E8BAB810002038B503F029FC044625
:1050C000064D2B68D3F8B00203F016FC286802F0F6
:1050D000ECFA2046BDE8384003F00EBCB8100020C2
:1050E00008B50421002001F017FA0421062001F080
:1050F00013FA0821072001F00FFA0821084601F0F1
:105100000BFA08211C2001F007FA0821242001F0E5
:1051100003FA0821252001F0FFF9002008BD000056
:1051200007B501A801F0A8FF9DF80530012B27D194
:10513000224A936DDB0313D4536B23F4FF0323F450
:10514000FE4343F4BC1343F4A0635363136B23F493
:10515000704343F440431363136B43F4E0631363FE
:105160009DF8043063B94FF000531B68144B1B6863
:10517000144B1B68144B1B68144B1B68144B1B68A7
:10518000144AD2F8803043F00303C2F8803003F0B1
:10519000D5FA03F095FA03F0EFFA03F099FAFFF766
:1051A0009FFF03F07BFA00F0CFFB04F025F800F03E
:1051B000C3FD03B05DF804EB04F0DEBE00C0005098
:1051C000004000200080002000C0002000000120DE
:1051D000004001200080005008B500F0C9FCBDE887
:1051E000084000F05FBD08B502F06EF902F07EF9EC
:1051F00002F08EF908F06CF908F0F6F9BDE8084005
:1052000008F02CBA70477047FFF756BF08B508F092
:105210006DF9BDE8084008F0F9B9704708B503F02A
:10522000E1FBBDE8084000F057B808B505F088FA82
:1052300003F0A4FA0EF0A4FDFFF7F0FFBDE808406C
:10524000FFF714BF70B5114E92B035460BAC0FCDC1
:105250000FC495E807000E4B84E807000D4A0221B1
:10526000CDE90323002307ACCDE9051306F11C03A8
:105270000FCB84E80F00084B214600930BAA03AB29
:10528000064803F09DFE12B070BD00BF603C0300F5
:1052900021000100008005500C1A0020741A002023
:1052A000831E012B0AD8012908D80422094B1B6947
:1052B000C3F340030121002001F0FEBB02390129A4
:1052C00007D8012805D8034B00221B69C3F340030C
:1052D000F0E7704700C0035008B50449044804F0E3
:1052E000FFFEBDE80840FFF7ADBF00BFBC100020C7
:1052F0004C1A0020014B186803F020BF741A0020DC
:10530000FFF7F8BF014B1A6A18681047741A00209B
:105310000120704710B5FFF7C9FE044603F059FF9E
:10532000002808BF002408F045FA002808BF002420
:10533000FFF72AFA002814BF2046002010BD38B518
:1053400004F0E0FF0446FFF7DDFF04281ED002282A
:105350004FF0000508BF012403F03DFF042817D0DB
:10536000022808BF012408F049FA042812D00228B4
:1053700008BF0124FFF7CCFF04280DD0022808BF86
:105380000124002D18BF0024204638BD0125E3E785
:105390000125E8E70125EDE70024F5E708B512F05F
:1053A000AFFE0022014B1A7008BD00BF981A002002
:1053B000FF20704708B5FFF7FBFF002008BD07B5C9
:1053C0000022034611460120009207F067F903B05E
:1053D0005DF804FB08B500200AF06AFA00200CF022
:1053E0001DFB002008F0D4FF002009F0F1FBBDE810
:1053F0000840002009F0F4BC012008F0C3BD08B546
:1054000002200AF05FFA022009F0F4FC02200CF0FE
:105410002DFEBDE8084002200AF016B870470AF0D9
:10542000EDBA10B49DF8044001945DF8044B0AF005
:1054300009BB08F03BBF7047704770477047704723
:1054400010B5044609F04EFE2046BDE8104009F0B4
:1054500083BA09F0C5BB09F0CFBB09F0D9BB7047CF
:105460007047704770477047704770477047704784
:105470007047704709F068BC70477047704782B04A
:105480006B4683E8060093E8060002B008F0F8BC1B
:105490007047704770470BF094BC0BF098BC704796
:1054A000002070470BF095BC0BF0A1BCFEE700009C
:1054B00008B500F02DF8124B12498B4212D3002090
:1054C000114B12498B4218D3FEF758FE186850F85A
:1054D0002240586840F82240013298688242F5D351
:1054E0000C33EAE70022F8E71C6844F82200013296
:1054F0005C68A242F8D30833E4E70022F8E700BF73
:10550000C0A70300CCA70300CCA70300CCA70300CF
:105510006FF00100104B114A10B59A60D3F8882043
:105520000F4942F47002C3F8882001F5005210665A
:1055300041F2FF7050660220C3F8D000BFF34F8FD6
:10554000BFF36F8F08244FF440330648C0F8804102
:10555000D36004600B6110BD00ED00E0004000006E
:105560000080004400E100E0014B1868704700BF74
:10557000E4100020014B1860704700BFE4100020C9
:10558000084B1B6F03F00703022B04D0032B05D03D
:10559000012B05D0FEE7044B18687047034BFBE76F
:1055A0000348704700800050E4100020E8100020FD
:1055B000002D310108B5FFF7E3FF054B1B6FC3F367
:1055C00001330133B0FBF3F0024B186008BD00BF9C
:1055D00000800050E01000200048704700B4C40470
:1055E000014B1868704700BFE8100020054B186099
:1055F000054B1B6F03F00703032B01D1FFF7DABF45
:10560000704700BFE8100020008000500020704765
:1056100000487047002D3101174B9868C0F30440D3
:105620000C2822D8DFE800F00921212121210717C9
:1056300019211B1D1F00114870479B6803F0407320
:10564000B3F1807F13D0B3F1007F12D00C4A002B4E
:1056500008BF104670470B4870470B4870470B480F
:1056600070470B4870470B487047002070470A4846
:1056700070470A48704700BF0040015A405DC600AD
:1056800000093D000024F400C0EA210180BA8C0129
:105690000048E801005A620280841E0040420F0068
:1056A0004FF4004070474FF47A707047014B186810
:1056B000704700BFEC100020BFF34F8F0549064B29
:1056C000CA6802F4E0621343CB60BFF34F8F00BFA0
:1056D000FDE700BF00ED00E00400FA0500239B6A2F
:1056E000B3F5804F03D21968064A914203D00023D4
:1056F000037083607047012202709A689B69426060
:10570000F7E700BF07B0CD5E30B50024A36A87B0CD
:10571000B3F5804F054601910FD2012303A88DF800
:105720000C30CDE90444FFF7D9FF059B5B0504D598
:10573000A36A28461B6C0199984707B030BD00004A
:1057400073B5464B04461A781AB102221A7002B099
:1057500070BDCDE900220028F9D001261E7001F0AD
:1057600004F93F4D3F4B186016F094FC2B785BB961
:1057700000F0E2FA40B93C4808233C4A3C49006842
:1057800011F082FB00B92E703A4B5A68A2603A4A77
:105790009A601A6E22605A6E62601B6E5C043DD580
:1057A000364AD368D807FCD4354B1A68531C3AD014
:1057B0004FF480139340334A13660423314C23661D
:1057C0004FF48063236600F03DF901300BD000F008
:1057D00039F940F2011398421FBF4FF4804323660A
:1057E0004FF4004323661023264C4FF0804223667B
:1057F0004FF400536846236601A922666366FFF7EB
:1058000083FF009B2366019B63662B78002B9ED051
:10581000164B1A6822665B68636698E71A4AD36873
:10582000D907FCD4C0E7194B1B78002BC5D1184B06
:105830005A68144B12B94FF480121A66154A52680E
:1058400012B94FF400121A66134B5B68002BB4D1E7
:105850004FF480020B4B1A66AFE700BFB21A00206C
:10586000B01A0020B41A0020F8100020A81A002056
:10587000007108000080004455CEAC0000000440D8
:10588000F01000200090004400000450B11A0020E5
:105890000080055000C005500000065038B5214D6D
:1058A00004462B78012B02D001232B7038BD002831
:1058B000FCD000F0C7F8013009D000F0C3F840F286
:1058C0000113984203D0184AD368DB07FCD422683E
:1058D000164B1A6662685A66A268D40744BF002253
:1058E0009A60134B1A68013213D1124A127882B9A6
:1058F00011494968C80748BF1A60104A5268D10761
:1059000044BF01221A600E4A5268D20744BF0222E5
:105910001A6016F0D7FB0B4B186801F02CF8002327
:10592000C3E700BFB21A002000000440008000441A
:10593000F0100020B11A00200080055000C0055072
:1059400000000650B41A002070B50024A36AB3F515
:10595000804F1ED2104E337813F0FD0517D10F483B
:10596000FFF7EEFE08214FF480330D4A0D48C2F8D0
:105970008011C36011600C4A1361AB6ADB69984700
:1059800004460648FFF78AFF0CB90123337020460E
:1059900070BD4FF48174FAE7B11A00209C1A002000
:1059A00000E100E000A000440090004413B51F4B4C
:1059B0001B7803B9FEE700231D4CCDE900336A468E
:1059C00008231C49206811F05FFAF0B91A4AD2F88E
:1059D0004031D2F840211F2B4FF0010310D9203A5B
:1059E0009340019A1343019308236A4611492068A2
:1059F00011F000FA4FF00053104A1A60FFF75CFEF6
:105A00009340009A13430093EEE70D4B9842F1D177
:105A1000094AD2F84031D2F840211F2B4FF0010340
:105A200002D9203A9340DEE79340ECE7B21A002017
:105A3000F810002000710800008000440B020FF0F5
:105A40000BE000F01FB500239A6AB2F5804F04D333
:105A500040F2011005B05DF804FB126BB2F5804F07
:105A6000F6D2012201A8CDE902338DF80420FFF718
:105A700035FE039BDB03EBD5029B1A0EE8D0012A0F
:105A800003D1C3F307430A2BE2D900239B6A1B6BA4
:105A90001B6C9847DEE700230360704703680B60C8
:105AA0000160704710B538B132B129B10023013916
:105AB000D45C14B90023037010BD8B42FAD200F8F5
:105AC000014B0133F4E7034638B100201A5C22B1E0
:105AD000814200D170470130F8E770474FF0FF3145
:105AE000FFF7F1BF70B50C461646054660B15AB1D6
:105AF00051B1FFF7F3FF844206D9211A32462844F8
:105B0000BDE87040FFF7CEBF70BD000070B5D0B1EA
:105B1000C9B10E4E431E013913F8014F2046A25D54
:105B200002F00302012A11F8012F08BF04F120003E
:105B3000B55C05F00305012D08BF2032801A01D1A4
:105B4000002CE9D170BD0120FCE700BF4DA6030089
:105B500005490A681318054883428CBF4FF0FF328D
:105B60000B601046704700BFF41000200080012039
:105B700008B5042201230321002000F09DFF00202E
:105B800000F055FF01221B4B0521C3F844240C20D3
:105B900000F0C2FC0C2000F06DFB174B00F5D52087
:105BA000D3F8F02000F2FC4042F00102C3F8F020EC
:105BB000D3F8FC2042F08072C3F8FC200F4AA3F512
:105BC0005D431A600E4B0222B0FBF3F00D4B01381F
:105BD0001861C3F8F0204FF48072C3F804234FF02B
:105BE0006043094A0020C3F8B02F084AC3F8802E4A
:105BF00008BD00BF00D0035000ED00E0FF030040EF
:105C0000F8590D00000004E055CEACC509000100B4
:105C10004FF060420123D2F8001E03FA00F008435F
:105C2000C2F8000E002070474FF06043D3F8802E7A
:105C300030B5D20715D501240B4D8440D5F8FC2092
:105C400042F08072C5F8FC20D3F8002E2243C3F83E
:105C5000002E53F82020002AF0D003F82010002056
:105C600030BD1120FCE700BF00ED00E070B5044638
:105C700001250B4E04B970BD94FAA4F0B0FA80F07F
:105C800005FA00F306EB001224EA03045368002B24
:105C9000F0D0117B11B191689847EBE79847E9E79D
:105CA000B81A002008B5192000F068FE28B14FF09E
:105CB0000072074BC3F880211A601A2000F05EFEC4
:105CC00028B14FF08062024BC3F880211A6008BDF2
:105CD00000E100E038B505460C4600F046FE002223
:105CE000044B03EB05135C601A73BDE8384000F009
:105CF00042BE00BFB81A0020064BD3F82404D3F8E4
:105D0000202403F50053104000F05530C3F8200460
:105D1000FFF7ACBF00C00350064BD3F82404D3F800
:105D2000202403F50053104000F0AA30C3F82004EB
:105D3000FFF79CBF00C00350024B1968024B186864
:105D400010F082BFFC100020F81000207047000007
:105D500037B5920004460D4601922AF0F5F8431C2F
:105D60000BD060B929462046019A29F053FC00283F
:105D7000044808BF002003B030BD0348FBE70348D8
:105D8000F9E700BF10E000F021E000F024E000F0AF
:105D900013B5044601A801F06FF99DF80630012201
:105DA00023804FF4807300206380054B9B680A3387
:105DB00003F01F0302FA03F3636002B010BD00BFDB
:105DC0000080E00F01F090B808B501F081F80020E4
:105DD00008BD10B5044644EA010313F00303084666
:105DE00009D1934201D1002010BD54F8231040F88E
:105DF00023100133F5E72146920029F01BFCF2E75E
:105E000010B504462AF0A8F8431C15D0B0B90C4BC5
:105E100020469B680A3303F01F020123934023F0BE
:105E200003032344984201D1002010BD50F8042BF5
:105E30000132F7D00348F8E70348F6E70348F4E7F0
:105E40000080E00F0EE000F021E000F024E000F020
:105E500008B500F07BFD014B186008BD4823002009
:105E6000014B186800F076BD482300207047000001
:105E700041F6713310B5104C104AA0428CBF4FF45C
:105E800080140024D169D363936801F4803123F432
:105E90004013234393600A4B98420A4BD3F81822CD
:105EA0008CBF42F0020222F00202C3F8182211B1A4
:105EB0000022024BDA6310BD005A62020000035058
:105EC00080F0FA0200C007502E4B98424AD022D8E8
:105ED0002D4B984240D014D82C4B984239D00AD838
:105EE0002B4B984232D02B4B98422FD02A4B9842C2
:105EF0002CD000207047294B9842FAD1284B186FBC
:105F00007047284B98422AD0274B9842F1D1244B16
:105F1000D3F880007047254B98422BD009D8244BEA
:105F2000984223D0234B9842E3D11D4BD3F88C00E9
:105F30007047214B984221D003F5740303F51053A9
:105F40009842D6D1164BD3F898007047144B986DF1
:105F50007047134B586E7047114B586F7047104B7A
:105F6000986F70470E4BD3F8840070470C4BD3F8F2
:105F7000880070470A4BD3F890007047084BD3F85D
:105F8000940070470048E8010024F400C0CF6A0084
:105F900080841E0000093D0040420F00405DC600A5
:105FA0000080E00FC0EA210180BA8C01007E560318
:105FB00080D54302006CDC020090D00308B5FFF7E7
:105FC0000BFBBDE808400021FFF752BF38B5124B6C
:105FD0000546D3F820310C4603F00703013B032BA1
:105FE00017D8DFE803F0020A0E12FFF7BDFA042308
:105FF00005B1286004B1236038BDFFF7F1FA03232F
:10600000F6E7FFF709FB0523F2E7FFF701FB0223A1
:10601000EEE700231846EBE70080005037B50C464A
:106020000021124A0191D2F88021054602F00302B4
:10603000022A0ED0032A11D0012A14D101A8FFF799
:10604000C5FF0D230DB1019A2A6004B1236003B08E
:1060500030BDFFF7E1FA05230190F3E7FFF7D8FA27
:1060600002230190EEE70B46ECE700BF00800050F2
:1060700038B5104B0546D3F840310C4603F0030306
:10608000022B0BD0032B0DD0012B0FD1FFF708FBF8
:10609000082305B1286004B1236038BDFFF706FB73
:1060A0000723F6E7FFF7FFFA0923F2E70023184674
:1060B000EFE700BF0080005038B5104B0546D3F81D
:1060C00060310C4603F00303022B0BD0032B0DD0E1
:1060D000012B0FD1FFF7E4FA082305B1286004B1C2
:1060E000236038BDFFF7E2FA0723F6E7FFF7DBFA94
:1060F0000923F2E700231846EFE700BF00800050B5
:1061000038B5134B0546D3F800320C4603F00703AD
:10611000013B032B18D8DFE803F0020A0E12FFF749
:10612000BFFA082305B1286004B1236038BDFFF72A
:10613000BDFA0723F6E7FFF7B6FA0923F2E7FFF700
:1061400039FA0C23800AEDE700231846EAE700BF7E
:106150000080005038B5134B0546D3F808320C4682
:1061600003F00703013B032B18D8DFE803F0020A12
:106170000E12FFF795FA082305B1286004B12360D9
:1061800038BDFFF793FA0723F6E7FFF78CFA0923E8
:10619000F2E7FFF70FFA0C23800AEDE70023184619
:1061A000EAE700BF0080005038B5104B0546D3F831
:1061B00040320C4603F00303022B0BD0032B0DD00F
:1061C000012B0FD1FFF76CFA082305B1286004B149
:1061D000236038BDFFF76AFA0723F6E7FFF763FA93
:1061E0000923F2E700231846EFE700BF00800050C4
:1061F00038B5104B0546D3F800310C4603F00303C5
:10620000022B0BD0032B0DD0012B0FD1FFF7E8F998
:10621000032305B1286004B1236038BDFFF746FAB7
:106220000723F6E7FFF7F2F90623F2E70123002040
:10623000EFE700BF00800050032814D005D80128E4
:1062400005D0022809D0002005E00F28FBD1084B1B
:10625000186FC0F3013001307047054BD3F8900040
:10626000C0F30460F7E7024B186FC0F38020F2E739
:10627000008000501FB500230193252817D8DFE8C0
:1062800000F0131A1D262B353A50555A5F64697772
:10629000161A3F1616551A262B26351A5026773A07
:1062A0003A3A3A2626265A5FFFF76AF90190019892
:1062B00005B05DF804FBFFF77DF9F7E7FFF760F93C
:1062C00002460220FFF7B8FFB2FBF0F0EEE7FFF75F
:1062D00071F902460320F5E7FFF76CF90246032047
:1062E000FFF7AAFFB2FBF0F04008DFE7002101A8AA
:1062F000FFF794FEDBE7002101A8FFF767FED6E772
:1063000002934FF0E0231B695B0705D5FFF752F9B5
:106310000290029B0193CAE703A902A8FFF7A8FE17
:10632000F7E7002101A8FFF7A3FEC0E7002101A8BD
:10633000FFF7C2FEBBE7002101A8FFF7E1FEB6E7C9
:10634000002101A8FFF706FFB1E7002101A8FFF730
:106350004FFFACE7094BD3F8803003F00303022B67
:10636000A9D0032B01D00020A0E7FFF755F99DE746
:10637000002101A8FFF718FF99E700BF0080005037
:1063800008B50120FFF776FFBDE8084003498842C1
:106390008CBF02210121032000F002B880F0FA0234
:1063A000032810B50C4627D004D8012804D00228B1
:1063B00017D010BD0F28FCD1FFF700FE00F028F821
:1063C000124B013C196F21F4405141EA04341C671F
:1063D000FFF7F0F80021FFF74BFDBDE81040FFF795
:1063E000CFBF0A4B013CD3F8901021F0F85141EA9D
:1063F0000464C3F89040DCE7044B013C196F21F4BE
:10640000806141EA84241C67D3E700BF008000500C
:1064100002210320FFF7C4BF1FB5002301932528E5
:1064200021D8DFE800F013202020202A2F454A4FF2
:1064300054595E7120203420204A202020202A2018
:106440004520712F2F2F2F2020204F54314B1B6FB1
:1064500003F00703013B032B05D8DFE803F00C0230
:10646000080A04230193019805B05DF804FB032397
:10647000F8E70623F6E70223F4E7002001A9FFF777
:10648000CDFDF0E7002001A9FFF7A0FDEBE70293A7
:106490004FF0E0231B695B0705D5FFF78BF80B2353
:1064A0000393039BDEE703A902A8FFF7E1FDF8E7EA
:1064B000002001A9FFF7DCFDD5E7002001A9FFF7C7
:1064C000FBFDD0E7002001A9FFF71AFECBE7002073
:1064D00001A9FFF73FFEC6E7002001A9FFF788FEEC
:1064E000C1E70C4BD3F8803003F00303022B03D039
:1064F000032B05D00023B5E7FFF75CF80B23B1E7CA
:10650000FFF78AF80523ADE7002001A9FFF74CFE4D
:10651000A9E700BF0080005070B50C46252848D878
:10652000DFE810F0260047004700470047005B0007
:106530006B009B00AB00BB00CB00DB00EB00FC0062
:10654000470047007B0047004700AB00470047007B
:10655000470047005B0047009B004700FC006B00C2
:106560006B006B006B00470047004700BB00CB008F
:106570008B1E042B2ED8DFE803F02A1D032D2700E5
:1065800000250226FFF71AFDFFF742FF6B4A136F43
:1065900023F0070333431367FFF70CF80021FFF7DD
:1065A00067FCFFF7EDFE25B9032C02D10122644BF5
:1065B0009A6270BD0122634B0E469D6A03F58053BB
:1065C000C5F340059A62DDE700250426DAE70025D9
:1065D0000126D7E700252E46D4E78C1E0B2C8CBF56
:1065E0000021594B554A98BF195DD2F8803123F0EC
:1065F00003030B43C2F88031DBE78C1E032C8CBFF6
:106600000021524B4D4A98BF195DD2F8203123F03A
:1066100007030B43C2F82031CBE70B2912D00ED869
:10662000CC1F022CC5D84A4A536A43F00103536277
:106630004FF0E022136923F004031361B9E70E2938
:10664000B7D1F0E7424A536A23F0010353624FF097
:10665000E022136943F00403EFE7CC1F022C8CBF48
:1066600000213C4B354A98BF195DD2F8403123F0E8
:1066700003030B43C2F840319BE7CC1F022C8CBFB5
:106680000021354B2D4A98BF195DD2F8603123F0B7
:1066900003030B43C2F860318BE7CC1F052C8CBF82
:1066A00000212E4B254A98BF195DD2F8003223F005
:1066B00007030B43C2F800327BE7CC1F052C8CBFCD
:1066C0000021274B1D4A98BF195DD2F8083223F0EC
:1066D00007030B43C2F808326BE7CC1E042C8CBFB7
:1066E0000021204B154A98BF195DD2F8003123F0E4
:1066F00003030B43C2F800315BE705290CD00B29DB
:1067000014BF002102210D4AD2F8803023F0030388
:106710000B43C2F880304CE70321F4E7CC1F022C76
:106720008CBF0021104B054A98BF195DD2F840324A
:1067300023F003030B43C2F840323AE700800050D5
:1067400000E0005000C00050803E03008C3E03007B
:1067500000C00750903E0300903E0300933E0300AC
:10676000933E0300993E0300903E030038B5054672
:10677000FFF7AAFB214B04465A68012A04D120499D
:106780004A609A699207FCD10020FFF745FE042871
:1067900003D1FFF713FCFFF73BFE1A4A24F04073C6
:1067A000954221D0184A954221D0184AD16811F05B
:1067B000060FFBD190689360916803F4F81301F41D
:1067C000F8118B4216D12846FEF7D4FE0020FFF7C1
:1067D00023FE042810D1FEF7EDFE0021FFF748FB51
:1067E000BDE83840FFF7CCBD43F00073DDE743F070
:1067F0008073DAE79060E9E738BD00BF00C0015060
:1068000000E0015040420F0080841E000000015053
:1068100070B504460020FFF7FFFD03287CD045F645
:106820000E030221414AC2F88030414B9962012196
:1068300003F580539962936DD903FCD4D4E9001316
:106840001B0543EA0163E17B94F822500B43217B53
:1068500094F8236043EA0143617B43EA0133A17B5F
:1068600043EA811313619169D4E904031B0643EAE7
:10687000806301F000410B43A17EE07E0B43217E4B
:1068800043EA0143617E43EA01239361136AE269AB
:1068900023F00D03002A0CBF0021082143EA020364
:1068A00043EA8003214A43EA0103136294F820304B
:1068B0004FEA431331D1906A94F8211020F033004D
:1068C00043EA0113034343F001039362194B916DB3
:1068D00033EA0101FBD10221154B9962936D5B00F4
:1068E000FCD41069A36820F4700040EA03501061E2
:1068F0004FF000420E4B9A611DB9022203F58053FE
:106900009A6216B901220C4B9A6294F824301BB19A
:10691000064B0A4AC3F8802070BD916A21F033010A
:1069200031430B4343EA45039362EEE700C0005056
:1069300000D000500300014000E00050F1A7FFFF2D
:10694000014B93F900007047FC230020EFF3108007
:1069500072B6704700B962B67047302383F311886E
:106960007047002383F311887047EFF311803023C1
:1069700083F31188704780F311887047054B4209F3
:1069800053F8223000F01F0023FA00F0C04300F05B
:106990000100704700E100E0704770470A4A10B5F7
:1069A0001369044643F00403136103F043FDFFF74A
:1069B000F3FF30BFFFF7F1FF03F050FD1CB9BDE856
:1069C0001040FEF7F7BD10BD00ED00E0084A10B51D
:1069D0001369044643F00403136103F02BFD30BF39
:1069E00003F03CFD1CB9BDE81040FEF7E3BD10BD4F
:1069F00000ED00E070477047034A0179D36E23F041
:106A000030030B43D36670470040005070B5054615
:106A100014460E46FFF79AFF296881EA040202EA4B
:106A200006044C402C60BDE87040FFF793BF7047F0
:106A3000072AF7B50D4614461F460FD803219600C6
:106A4000B14000FA06F215480191FFF7DFFF05F0AB
:106A5000030201991248B240FFF7D8FF114B1249C7
:106A60009DF82000002F08BF1946012303FA04F403
:106A70000C600E4B0E49002808BF0B461C600D4BE6
:106A80009DF82400C3F820441031A3F6DC3300281D
:106A900008BF0B461C6003B0F0BD00BF00C403502C
:106AA00008C4035010E4035010D4035014D403500E
:106AB00014E4035000E00350F8B504460D461F46A9
:106AC00016464AB101238B403021194A01FB0022AE
:106AD000FFB141F21001535004EB4403072D4FF076
:106AE0000F014FEA031317D8A80006FA00F28140FD
:106AF00010481844FFF78AFF56B9012130230C488B
:106B000001FA05F503FB040077B141F21003C5500B
:106B1000F8BD42F21001DEE7A5F10800800006FA98
:106B200000F281400448E4E742F21003EFE700BFBF
:106B300000C0035004C003500CC00350F8B5054614
:106B40000E4614465AB3826803F0030722F44072DB
:106B50008260FFF7FBFEAA6882EA072303F4407312
:106B60005340AB60FFF7F6FE36B9104B9D4217D18C
:106B70001620FFF77FFB0646AB680D4BD85D6043E0
:106B80000DD06FEAC4040444A319B3FBF0F3AA6860
:106B9000013B920702D5002B08BF0123AB61F8BD72
:106BA000044B9D42E8D11720E3E700BF0000015AE3
:106BB0009E3E030000800650043021B100F5805055
:106BC00001230360704700F50050F9E738B5002352
:106BD0000E4A036400F50053DA634A7804460D4612
:106BE00000F108037AB903F5805302221A602046A7
:106BF000D5E901122B7BFFF7A1FF20462978BDE8DC
:106C00003840FFF7D9BF03F50053EEE7FFFF1F0041
:106C1000884B2DE9F043984222D0874B984240F0B0
:106C20000581864B402505264FF000084FF0030CE8
:106C3000996800F50054C26B12F4C06F16D0970526
:106C400010D5FD225A7009221A700022026493F9AD
:106C50000110012900D15A7093F90100BDE8F083B9
:106C6000774BDFE75605EED5FE22EBE71F78082FBE
:106C700000F2D880DFE817F009001F0041004C0047
:106C80006900740096009E00CD004C880A88E506D5
:106C90000AD5120A02F0060242F0F0020121197030
:106CA0004263C1600120D9E702F0FE02A10748BF9C
:106CB00042F00102F2E7170607D5802100F50052E5
:106CC000D1634FF608721A8062E05206EAD54A880C
:106CD000E563D70604D502221A700B784363E1E717
:106CE000920765D507221A701B7901EBC3010B8946
:106CF000012BD7D10823C360D4E71706DDD4520691
:106D0000D0D54A88E563970752D583F800C092E74B
:106D10004C880A88E50643BF120A02F0060242F0D8
:106D2000F00202F0FE02640709D51C7942F001026C
:106D300001EBC4010989012904BF0821C1600421B4
:106D400019700123C3604263ACE71706B5D4570638
:106D5000A8D54A88E56352072AD507221A70A1E709
:106D60001A795F8801EBC20EBEF80890B94511D8B8
:106D70000132D2B21A714F88A3F8028017F0040FC3
:106D8000C3D1FF0702D4012A7FF655AF08221A703B
:106D90000223B0E7DEF80420791C5980D25D4263FB
:106DA0000622DBE7170688D457067FF57BAFE5633D
:106DB0001E7040E794067FF575AF456A214C466921
:106DC0001A793440B4F5003F04BF466A4FF40056C8
:106DD00001EBC20100F500540A8908BFE6632026D2
:106DE000E6635C88A24281BF4968661C5E800D55DF
:106DF00059888A42CAD90424012AC46004D9013AB4
:106E0000914201D10822C2601A78092A3FF41DAFCD
:106E100048E7D2057FF546AF4FF4807100F5005288
:106E2000D16310E74FF609321A800EE76FF00300C6
:106E300014E700BF0000015A008006500C24002017
:106E400000240020200002001C4B10B4984207D000
:106E50001B4B98422ED06FF003005DF8044B704737
:106E6000184B0269D20744BF2022C2604A889407A7
:106E700002D50C89002CEED0520702D50A8A002ACE
:106E8000E9D04FF480721A60002299601A71C02311
:106E9000C3604369DB050FD4202200F50053DA6399
:106EA000094A5DF8044BDA63036C43F4FC63036442
:106EB000FFF7AEBE054BD4E7436AEAE70000015A8C
:106EC0000080065000240020FFFF1F000C2400203B
:106ED00041F67132034BDA63012203F50053DA60A5
:106EE000704700BF0000035041F671320121044B8E
:106EF000DA6303F50052D1600022DA63704700BF05
:106F0000000003504FF050234FF400321A677047CF
:106F1000014BD3F894007047004000504FF0B0434D
:106F20005A6812B19A6A002AFAD17047CB784A7827
:106F300010B55B010C7843EA82030A79234343EAE4
:106F400002130C22424302F1B0421363012C02BF30
:106F50008A78024B43F8202010BD00BFD080035038
:106F600008B54FF0B0435A6802B960B15B680BB125
:106F7000FFF7D4FF4FF0B04130B10120074B58600C
:106F8000FFF7CCFFC86008BDFFF7C8FF0223CB6046
:106F9000FFF7C4FF0122024B5A60F4E700100058CB
:106FA000002000584FF0B0435B6870B50BB1FFF79D
:106FB000B5FF0121104B4578596083780679002B85
:106FC000C37814BF02240024002B14BF0422002223
:106FD0004379DB0043EA06132B43234313434FF06B
:106FE000B0429360054B59600378002B14BF0B46E9
:106FF0000223D36070BD00BF00200058001000586D
:10700000436813B9416070475B685A68012AFBD135
:1070100059607047836813B9816070475B685A682C
:10702000012AFBD159607047C369032B9FBF00EB56
:1070300083020133D160C3617047C369042B15D843
:107040004FF09842116CC902FCD504339B001365C4
:107050000168103B116041680C30116050F8041C4D
:10706000034411604FF09842984200D1704750F8A5
:10707000041B1160F8E70000054B5B69C3F3851240
:10708000827003F03F021B0B42700370704700BF19
:1070900000C007500D4B984208D1A3F50033C3F848
:1070A0008411C36D43F08003C3657047084B984259
:1070B00004D1A3F51033C3F89411F2E7054B9842BD
:1070C00004BFA3F52033C3F8A411EAE700800550FC
:1070D00000C005500000065070B5054616461C4617
:1070E00019B90320FFF7C6F80146402C1BD003D87E
:1070F000DCB1202C1BD070BD602CFCD1042303FB21
:1071000006F2560806EB4113B3FBF2F3094A203BA3
:1071100002EAC303AA6822F06002AA60AA681443C4
:10712000AC60EB61E7E70623E9E71023E7E7082314
:10713000E5E700BFF8FF7F00012200F580535A60A9
:10714000CB43934003F00A034361416111B900F559
:107150000050426070470000012200F5805310B5D6
:107160005A6040F6AA6341F20502436100231249C6
:107170008360C365C26000F500520361C361C364EC
:1071800091640E498365884206D00D4CA04203D01D
:1071900004F58044A0420BD18842036506D0084B19
:1071A000984203D003F58043984201D10023436500
:1071B0000123536010BD00BFFFFF01000080055098
:1071C00000C0055070B50D46FFF7C6FF012300F55E
:1071D00080567360AB7C04461BB1836843F08043E8
:1071E0008360EB7C1BB12046297DFFF753FF2A8A81
:1071F0006B7B20461343EA891343E3602B7BD5E97D
:107200000112FFF769FF6B7D1BB1A36843F4803364
:10721000A360AB7D1BB1A36843F40043A360EB7D87
:107220002A7E1B07120502F4E00203F0E043134339
:10723000A3656A7E931E012B214B20D89C421AD055
:1072400003F580439C4218D003F580439C420CBF59
:1072500002234FF0FF3341F2AC5102205B0103F1F6
:10726000A04303F570335850032A23D10423F36558
:107270002B78636170BD0023EDE70123EBE79C42AF
:1072800014D0104B9C4213D003F580439C420CBF9A
:1072900002234FF0FF3342F2AC5102205B0103F1B5
:1072A000A04303F570335850012ADEE70023F2E7CC
:1072B0000123F0E7042204F50053DA65D8E700BFA4
:1072C0000080055000C0055083691B06FCD5406A4C
:1072D000C0B2704783695B06FCD5C16370474368E1
:1072E00010B5DA0704460AD5FFF73FFB636ADB07F0
:1072F0005CBF0123E360BDE81040FFF73CBB10BD5D
:1073000000207047002070470020704738B50446C1
:10731000054D10F0E6FD0FCC0FC594E80F0085E891
:107320000F00002038BD00BF1824002047F6FF736F
:107330009A42F0B563D0032963D8334BCF0003EBF7
:10734000C10013F831108478012913D10025C378C6
:107350001B1B9D4202D3E018C0B2F0BD591B46680A
:10736000A3EB510136F911609642D4BF0D4601F1ED
:10737000FF33EEE740680028EFD0B0F900109142EB
:1073800004DBB0F902109142B8BF114682883B4439
:10739000FF2A19BFC8222826B0F90620B0F90860D4
:1073A000A2EB01020CBF0125002592FBF6F25F78EB
:1073B0002A447B1E934228BF13464FF47A7E00EB8B
:1073C000C305AE68EA88AC4611FB02621E4622EA9B
:1073D000E272013302F5FA729F42B2FBFEF204D967
:1073E000BCF80CC008359445EBD200EBC600808891
:1073F000904228BF1046A04238BF2046ACE7FF208D
:10740000ABE70020A9E700BF182400200329F0B54E
:1074100053D82B4800EBC10410F8311063680129E0
:107420000FD1E078A478904294BFC4EB0001C4EB84
:107430000201001BCAB28242C8BF002233F9120007
:10744000F0BD002B39D0A178914202D3B3F90200EC
:10745000F6E7E178B3F900009142F1D999886478B0
:10746000A1F1FF06013C714203F10405E4B2714150
:1074700003F10C071FFA82FCCEB2B44216D805EB1A
:10748000C1014FF47A756A43B1F902404968521A52
:1074900004EBD47102EB610292FBF4F29042CFDB79
:1074A000B3F902009042CBDC10B2C9E737F831E003
:1074B0004E1CE645E3D33146DEE70248C0E700BF95
:1074C000182400200080FFFF08B50448FFF71EFFC6
:1074D000BDE80840012010F041BD00BFA43E0300FC
:1074E00001207047012070470F2070477FB514229C
:1074F000002101A828F0C5F8044B01A94FF0FF3086
:10750000029310F07FFD07B05DF804FB006A1800DD
:10751000002307B5CDE90033012369464FF0FF3062
:107520008DF8023010F0B6FC03B05DF804FB704734
:107530000020704700207047C3681944836853F8DF
:107540002100417810F8023B03EB012313607047E0
:1075500010B54FF42F720021044628F092F88023D2
:10756000C4F88C30044B04F19C0063600123237247
:10757000BDE81040FEF78FBA903F030010B5D0F879
:10758000A0400A4674B900F0BBFC044640B12D2867
:1075900096BF074B074953F82010074800F0E8FF53
:1075A000204610BDD0F8A4101046A0470024F7E7ED
:1075B0004C400300A73F030080630300012310B584
:1075C0000372437A04465BB100F042FE204604F1A8
:1075D0000901FFF7D3FF2046BDE8104000F02DBDA4
:1075E00010BD0000037870B504460BB1002070BDDB
:1075F000FFF7A0FF0028F9D101232370237A23B1DC
:1076000020726168144800F0B3FF4FF0FF36D4F8E1
:10761000B4526A1C18D0C4F8B4622046FFF787FF42
:107620002046E9B200F04EFE0028F0D02046FFF7D9
:10763000C5FF207A28B16168074800F099FF002053
:10764000207200232370D2E700F077FF431C054629
:10765000E3D10120F5E700BF8754030038B50D469C
:107660000446FFF775FF6B682046C4F8B032A9687E
:1076700000F00CFB4FF0FF332046C4F8B432FFF7A4
:1076800057FF38BDD0F8B43210B50133044601D0ED
:10769000002010BD00F051FFC4F8B4020130F7D152
:1076A00094F8B80280F00100F3E708B5FFF79AFFFD
:1076B00008BD0000F8B50B780546302B0E4617467E
:1076C00004D14B7803F0DF03582B12D02A49721EE5
:1076D00012F8014F002C38D10A222146304628F0FA
:1076E00027FA202D03460A4634D1631A58425841DE
:1076F00017E04A1C204912F8013F9BB9304628F098
:10770000D9F81E4B02382B40032B15D16B1C48BFF8
:107710002B1D9B1083420BD1B07837288CBF0020E3
:107720000120F8BD5B5C13F04403E4D11846F8E790
:10773000CCBF01200020F4E7002DB8BF0335B0EB2B
:10774000A50FD4BF01200020EBE7635C13F0040316
:10775000BED1EBE727B1084302D0013B61F1000243
:10776000012000FA05F5013D1D40002A08BF9D4299
:1077700018BF0020D5E700BF4DA60300030000801E
:107780000A7801382D2A0ABF012200228918FFF742
:1077900091BF000070B503787B2B16D105460221FE
:1077A00000220B4E15F8014F7D2C05D1435C63B9C7
:1077B000D04300F0010070BDA35D13F0440302D07C
:1077C00001320131EEE7202CFBD00020F3E700BFAF
:1077D0004DA60300072805D8DFE800F0060A0D10C3
:1077E00013151A170020704700220820FFF762BF08
:1077F00000221020FAE700222020F7E70820FFF7F8
:10780000BFBF1020FBE72020F9E70846FFF7C2BF03
:10781000012070472DE9F74307280C46DDE90A7679
:1078200090461D4608D8013806280AD8DFE800F03F
:107830001D27303A44574A00212850D003B0BDE8F4
:10784000F08300222046114628F0EEF93368C0B2DA
:1078500005EB83013A6845F82300013348F822100C
:1078600033603B6801333B60E8E700222046114665
:1078700028F0DAF9336880B205EB8301EAE70022E9
:107880002046114628F0D0F9336805EB8301E1E783
:1078900000222046114628F0ABF8336840B205EBD1
:1078A0008301D7E700222046114628F0A1F833686B
:1078B00000B205EB8301CDE700222046114628F0F7
:1078C00097F8E1E7002389461E461D468DF80630ED
:1078D00019F8013F7D2B06D125702D0A65703B6894
:1078E00048F82340BDE7202BF2D006F00102013614
:1078F00012B98DF80430EBE71022002101A88DF8B1
:10790000053028F075F8631901359870ADB2DFE7DE
:107910002DE9F04F9B46002385B08B458146884674
:107920009246CDE902336BDC1A461E4619F8034035
:10793000FF2C08D15B4496B1013B43455CDD2B2015
:1079400005B0BDE8F08FA4F12001012905D9103C54
:10795000072C98BF01220133E8E70126FBE742B17B
:10796000013B4345EBDC35463746454504DB00200B
:10797000E6E79845F7D0E2E75D453BDB19F80730CD
:10798000202B18D109EB07035B78FF2BD7D1CEB999
:1079900020465AF82510FFF71DFF98B303AB01935B
:1079A00002AB00932046DDE90E235AF82510FFF7BD
:1079B00031FF0135D9E7212B0ED109EB07035B78A5
:1079C000FF2BBCD1029B5AF825200E99012641F8C5
:1079D000232001330293ECE7A3F11004072C02D912
:1079E0001C460137D3E709EB07035B78FF2BA6D1D1
:1079F000E4B2CCE70624CAE700252F462E46B4E7BA
:107A000021209DE726209BE72DE9F04F07460E46F3
:107A100015469846044685B0DDF84490DDE90FAB85
:107A2000206808B3DAF80020D8F800108A421BDA80
:107A30000E9B53F82210FEF769F848BBDAF80020D5
:107A40000132CAF800206268117BFE291BD10E9B0F
:107A50001068012100932A464346CDE902B9CDF8CA
:107A600004A0FFF7D1FF04462B7843B999F8003002
:107A70002BB97EB101233C4689F800302B7020469B
:107A800005B0BDE8F08F01238BF800302B70EBE7D9
:107A90000C34C5E73446F2E770B506460D4627F0CC
:107AA00009FF0446304600F063FD044EAC4200D3AB
:107AB00070BD304600F05CFD0134F7E77D5A0300ED
:107AC0002DE9F84F044602215048FFF7E5FF1E213B
:107AD0002068FFF7E1FF6368586800F049FD4C48F3
:107AE00000F046FD67683B7BFD2B12D8D7F8088075
:107AF0004FF0FF36404627F0DDFE0546DFF80C91DB
:107B0000DFF86CA1DFF844B10C3717F8013BFF2B0D
:107B100001D1BDE8F88F212B17D8212B33D8DFE80E
:107B200003F06D736F11181A1C1E3232323232326A
:107B3000323220222426282A2C2E3232323232327D
:107B400032326930334C1DB31FE0FE2B5AD0324C19
:107B5000F9E7324CF7E7324CF5E7324CF3E7324CB9
:107B6000F1E7324CEFE7324CEDE7324CEBE7324CC9
:107B7000E9E7324CE7E7324CE5E7324CE3E7324CD9
:107B8000E1E7324CDFE7244C05B10136202BBCD0B5
:107B900002214846FFF780FF1E214846FFF77CFF81
:107BA000504600F0E5FC5946204627F079FE28496A
:107BB000002818BF2146274800F0DAFC3B78202B2C
:107BC00002D12B2000F0C8FC234800F0D1FC4DB1BD
:107BD00018F806301F2B05D018F806001F2801D012
:107BE000AE4203DB0A4800F0C3FC8EE700F0B4FCB1
:107BF0000136F1E7002D88D0184CC6E7184CA2E7F3
:107C0000184CA0E7184C9EE7184C9CE77E410300F7
:107C1000185B030012410300790003006141030077
:107C20001841030059410300554103004C41030032
:107C300042410300384103004D410300434103002A
:107C4000394103002E410300274103001E41030078
:107C50000F410300875403008255030004410300D1
:107C60001141030017410300D406030060410300E3
:107C7000CD5F030010B50446236803B910BD237A15
:107C800013B92046FFF71CFF0C34F5E710B541B1DE
:107C90000A7932B901249C300C71FDF7FFFE2046B1
:107CA00010BD0020FCE700002DE9F04F2DED028B08
:107CB0009DB0039300F109030546184608EE103AFB
:107CC0000F4690464FF0000927F0F4FD289E039BD5
:107CD0000690C3F8009018EE100AC6F800900CAA9F
:107CE0000BA900F066FC0446002840F0C8800C9800
:107CF00027F0E0FDA246A346039B1860D5F89C3010
:107D00000293069B0933EB180793029B2BB920467D
:107D10001DB0BDEC028BBDE8F08F029B9B68019308
:107D2000002B7AD00BF109032B4413F8012B202AE6
:107D300015D04FF0000B0C2303FB0BF3019A1A44F0
:107D40000492019AD158002961D00B9B53450593A9
:107D50005DDB049B1B7A33B10BF101093EE0326815
:107D600001323260E1E73368D5F894200891D21AE5
:107D7000039B1A601CAB03EB8A0353F8403C184684
:107D800008EE903A27F09EFD81460028E4D108993C
:107D9000084627F08FFD049B02465B68089993F81C
:107DA0000CC00493BCF1FE0F33681CD1059800F1A0
:107DB000FF3ED64517D00593049B18EE900A1B682A
:107DC000019327F077FD059B03F1010B58443060C8
:107DD0003368EA18527A1AB10AF1010ACB46AAE7C7
:107DE00001333360F4E70991D5F894100892CB1A67
:107DF000934222DC384627F05DFD089A0999104429
:107E00007B280ED9414638461E4AFDF76BFE18EE18
:107E1000103A202207998B422CD1029B1B680293B7
:107E200073E70A4638464146FDF75CFE4146384650
:107E3000154A0134FDF756FE8EE7BCF1FE0F8BD1DB
:107E4000059B013B534587D1049BD3F8009059F81B
:107E50000C2B22B9069B3360039B1A60D7E741467F
:107E60003846FDF73FFE41463846074AFDF73AFEE1
:107E70000134ECE7197801B91A700133CAE74C46AE
:107E800045E700BF674103007D5A03002DE9F04735
:107E9000002486B01C60DDE90EA8064689468AF8F3
:107EA00000401168154888F8004017461D468DF8B7
:107EB0001740FDF72BFE18B901242B6801332B6006
:107EC0000020D6F89C6036B914B1012388F8003040
:107ED00006B0BDE8F087B06868B14B460021CDE937
:107EE00002A8CDE900750DF11702FFF78DFD9DF891
:107EF0001730002BE8D13668E5E700BF6C4103007E
:107F00002DE9F041BAB005460AAA084603A900F0D7
:107F100050FB0446B0B90DF10A0301930DF10B03B8
:107F20008DF80A0000930AAA284604AB03A9FFF7BC
:107F3000ADFF9DF80A20B2B158B19DF80B302BB1BE
:107F4000FFF7BEFD20463AB0BDE8F081FFF792FE94
:107F5000F8E7D5F89C50002DF4D0A86808B1FFF7D9
:107F600089FE2D68F7E700B346681AAB06F10C08E6
:107F70002AAF01934046049B039900970AAAFFF792
:107F8000C7FC04460028DDD1039B05A8CDE90637D0
:107F9000049B0595CDE9083803F038FA05A8336845
:107FA000984705A803F038FACCE72D24CAE710B5A6
:107FB00000F1AC04204627F07DFC23462218002067
:107FC000934200D110BD13F8011B0029FAD00A29F1
:107FD00008BF0130F4E7002370B50B601360D0F8E0
:107FE000AC4244B390F8AC402CB3012400F1AC0691
:107FF000D0F8AC52AC420FD3AC30B3F5007F10D305
:10800000012019E00D6801350D6015680135156016
:10801000F55C01330A2D02D0B3F5007FF2D30134B1
:10802000E6E7C15C0A29EBD00029E9D011680133E9
:1080300001311160E1E7204670BD10B5D0F88C2009
:1080400004460021093027F01CFB0023C4E9243337
:1080500010BD00002DE9F04300260446ADF5457D36
:108060007C22314605A802AF049627F00AFB802245
:108070002046009703AB04A9FFF716FE012840D164
:1080800004A827F017FC03993B68A0EB01080B44F8
:108090000933234428EAE878054604A80144424607
:1080A000184627F0C7FA00F80860D4F89060039BE0
:1080B0003968D4F890201944B14212DCD4F89410F5
:1080C000E81A0244C4F89020014404AAC4F89410A9
:1080D000D41825182B1B002B0EDC0DF5457DBDE8B3
:1080E000F0832244507A00F037FAD4F89030013609
:1080F0000133C4F89030DAE714F8010B00F02CFAE1
:10810000E8E7EADD24AD80223146284627F0B9FAB7
:1081100044AB4FF400723146184627F0B2FA0DF125
:10812000100903464A464FF00108314612F8016B28
:10813000002E4BD143F8281004A827F0BBFB29469A
:10814000334619F8016B0DF5887C5CF8042B8242EC
:1081500045D10133984501F8016BF2DAD4F890600B
:10816000039BB34244DC384A04F1090304A93748AD
:1081700000F0FEF9284627F09DFB039A3E68871A17
:1081800016440936A319154404F1980127EAE77249
:1081900016448B4204EB060050D204F19001884251
:1081A0004CD918466A1ED9190B1A002B3ADD12F861
:1081B000013F00F8013BD4F890300133C4F890300F
:1081C000D4F894300133C4F89430EDE7202E01F157
:1081D000010104BF43F8281008F10108A6E70DF1DA
:1081E000100E7244D25CB242AFD00022EA54B5E71E
:1081F000D4F8903001362344587A00F0ADF9D4F821
:1082000090300133C4F89030AAE7D4F89020013BB5
:108210000132C4F89020D4F894200132C4F894209C
:10822000002BF2DC00232F44A3557B1B002B7FF790
:1082300054AF15F8010B00F08FF9F6E71846294600
:1082400027F0F8F93B46EBE7903F0300714103004C
:10825000F7B5044600F1090500F1AC06284627F001
:1082600029FB471C304627F025FBC0F500739F42D1
:1082700018D83146421CF01927F0E9F9284627F0B2
:1082800019FB29460246304627F0D4F9284627F044
:1082900011FB0A23204480F8AC300023C4F8AC3230
:1082A00003B0F0BD2046FFF782FE01AAC4F8AC027D
:1082B00069462046FFF78FFE0022009B234483F887
:1082C000AC20CBE72DE9F047D0E9245604460F4611
:1082D000002294F89830012B06D10A2F06D10020F5
:1082E00084F89800BDE8F08700F2A7801B2F03D127
:1082F000022384F8983040E0A7F10D025342534125
:10830000082F04F1090884F8983038D1002D33DDA6
:10831000B54210D1384600F01FF9202000F01CF9BA
:10832000384600F019F90023013D08F80530013EF8
:10833000C4E9245621E0FBDA05F1FF39384600F0A4
:108340000BF908EB0903A6EB090208EB0501184637
:1083500027F07DF90022014608F806204F48013E2B
:1083600000F006F935464D4501DC4D46E0E70820B2
:1083700000F0F2F8013DF6E7DAD10020B2E77F2FF6
:108380001ED1002EF9DDB542F7DA08EB0503691CB2
:10839000721B4144184627F05AF90022014608F89A
:1083A00006203F4800F0E4F80820013E00F0D4F831
:1083B000B542F9D1D4F89430013BC4F89430DCE7ED
:1083C0000D2F01D00A2F0AD10D2000F0C5F80A2088
:1083D00000F0C2F800230120C4E9243382E7092F0A
:1083E00003D12046FFF736FEC7E7D4F88C30013BB7
:1083F000B342C2DDB54208EB050905F1010A0CDB09
:10840000384689F80070D4F89430C4F890A001334D
:10841000C4F8943000F0A0F8AFE74946721B08EBAF
:108420000A0027F014F9484600F0A2F80820013E9F
:1084300000F092F8B542F9DDE2E7022B06D15B2F9E
:1084400001D1032355E784F8982042E7032B94D108
:10845000413F84F89820032F8FD8DFE807F0020708
:108460000A160121204600F01DF886E74FF0FF3183
:10847000F8E7B54281DA2544687A00F06DF8D4F85F
:1084800090300133C4F8903077E7002D7FF775AF57
:10849000013D0820C4F89050BCE700BF7A410300BA
:1084A0006E5603004B1C73B505460C4612D1D0F82E
:1084B000AC421CB1013CC0F8AC420124D5F8AC621E
:1084C00066B354BB6946284601AAFFF784FD40BB4A
:1084D00002B070BD0129FBD1FFF769FDD5F8AC32C0
:1084E0008342F5D20133C5F8AC32E7E7082000F04B
:1084F00033F8202000F030F8082000F02DF8013685
:10850000204627F0D7F9B042F0D82846FFF795FD6E
:10851000D5F8AC32002BDBD0D4E7002605F10904F6
:10852000EEE7009C05F1AC06019BA342D0D9315D7A
:108530002846FFF7C7FE0134F6E707B500200DF126
:10854000070100F02EFA20B99DF8070003B05DF88E
:1085500004FB4FF0FF30F9E710B5C1B2044600202C
:1085600000F00FFA00280CBF20464FF0FF3010BD7E
:108570000FB407B504A951F8040B01910CF00AFFE0
:10858000002003B05DF804EB04B0704710B54C1C3C
:108590000B460119045D222C03D07B2C01D05C2CEE
:1085A00005D1D21A184427F052F8012010BD00203E
:1085B000FCE72DE9F84F05468846914627F07AF901
:1085C0002B4606461A4611785C1B202903F101034D
:1085D000F8D001234FF0000A6FF0404BC9F800209B
:1085E000C8F80030A64201D8002014E02F5D2919F8
:1085F0007B2F12D0222F2ED1D8F80030621C5B4482
:108600002A4449F82320012C09D911F8013C13F020
:10861000DF0F04D02120BDE8F88F7D27F3E7013478
:108620002B5D2A19BB4208D1537813F0DF03F1D137
:10863000222F00D113700134D4E75C2B07D13246CE
:1086400021462846FFF7A2FF0028E3D0013E01346F
:10865000A642E5D8DEE75C2F08D1324621462846FF
:10866000FFF794FF0028D5D0013EE4E7202FE2D1A8
:10867000631C9E4281F800A0DDD9EA18EB5C202B38
:10868000D9D0D8F800300F2B05DC49F8232001336E
:10869000C8F80030CFE71E20BDE7000013B5002466
:1086A000064A6846536F43F00103536700948DF800
:1086B0000440FEF7A1F9204602B010BD0040005072
:1086C00008B50248FEF752F8002008BD00B4C40403
:1086D00030B58BB06C46154D0FCD0FC40FCD0FC408
:1086E00095E8030084E80300114BD3F84C211203F2
:1086F00014D4D3F85041E4B28DF81940FEF720F9B4
:10870000204480F308008DF818000A48FCF76EFF3B
:108710006846FEF77DF800200BB030BD064B1C8884
:108720004FF6FF739C4208BF8C24E5E780410300AD
:108730000080E00F00F049020001E00F6FF004023A
:10874000502110B50A480B4C12F0800FD3B21BBF5A
:1087500003F00F03043BA3181B1802F101020CBF26
:1087600083F8001319763D2AEED1002010BD00BF1A
:1087700000ED00E000E100E000F078B838B501F06D
:10878000DFFF0446E0B902F0F5F84FF416734343F7
:108790000C4803F5742303F23F23B3FBF0F30A4ABA
:1087A0000A4913600A220D680948013A12F0FF02D3
:1087B00040F8043BF9D103EBC3022B4413440B6094
:1087C000204638BD40420F007C2400204824002071
:1087D0004C240020012208B5034B1A7002F0A4F8C3
:1087E000024B186008BD00BF4424002078240020FC
:1087F000F8B5144C237823B302F096F8124B134DBE
:108800001B68134EC01A012838BF0120114B124FAC
:1088100018602B7856F8232046F82300111A3A687E
:108820000E48521A0A213A600932B2FBF1F20133C2
:10883000DBB20260B3FBF1F201FB12332B700023B9
:108840002370F8BD442400207824002074240020E4
:108850004C24002040240020482400207C240020B8
:10886000014B1868704700BF7C2400202023094971
:10887000094A81F82D33094B03F50050426702671E
:108880004FF40050C1F88401486003F580535A67E3
:10889000704700BF00E100E0010000A000C00050F0
:1088A000044B9A6DD20702D40028FAD170470120F8
:1088B000704700BF00C000500C4B10B51C6FE207A2
:1088C00007D5012203F500531A67FFF791FF01F066
:1088D00029FD14F000521CBF054B1A67002CBEBFC7
:1088E0004FF00042024B1A6710BD00BF00C000509D
:1088F00000E00050FFF7E0BF10B50446FEF726F891
:10890000024B1C60FEF726F8002010BD80240020DA
:1089100010B5FEF71BF8034B1C68FEF71BF820464A
:1089200010BD00BF8024002007B530B9CDE900128A
:10893000FFF7EEFFDDE9001230B1436823B10068B4
:1089400003B05DF804EB1847232003B05DF804FB87
:1089500030B51C4685B058B9CDE90012FFF7D8FFF5
:10896000DDE9001204B903AC20B9232005B030BD05
:1089700003B903AC8568002DF7D023460068A847EB
:10898000F4E707B501228DF807100DF10701FFF795
:10899000CBFF03B05DF804FB0B4601461846FFF71A
:1089A000F0BF00230122FFF7D3BF00000EB40FB5C4
:1089B00005AB53F8042B039318B90192FFF7A8FFF6
:1089C000019A0146039B06480CF0F2FC0028D4BF34
:1089D0003720002004B05DF804EB03B0704700BFFF
:1089E0009989000010B5002400F022F80348044BD8
:1089F00084604360FFF780FF204610BD882400207C
:108A0000058A000007B5044B0093044B1B8800F057
:108A100025F803B05DF804FB842400201C1100201D
:108A20004FF06042D2F8803E1B02FBD4704700003A
:108A300008B5074B1A6842B9012208201A60FDF7F1
:108A4000E7F80449044801F04BFB002008BD00BFD3
:108A50009C24002020110020942400202DE9F047C0
:108A60000F4615461E46002402F1040802F10909CA
:108A70004FEA132A5FFA88F84C4502D30020BDE87C
:108A8000F0871CB3012C05D141460820FDF7CCF836
:108A90000134F1E7022C1BD0032C01D1F1B2F4E731
:108AA000042C17D0052C04D1089B13F8011B089344
:108AB000EBE7AB1DA3420FD0EB1DA3420CD005F199
:108AC0000803A3420AD0BB1F195DDEE75B21DCE788
:108AD000D121DAE75146D8E75A21D6E75D21D4E71C
:108AE00090F82A3001223BB190F82E30022B03D1AE
:108AF00080F82E20184670471346FBE780F82410B4
:108B0000704790F82400704790F82B0070470000E1
:108B1000002808DB0123420900F01F0003FA00F0DF
:108B2000014B43F82200704700E100E0002809DB18
:108B30000122430900F01F0002FA00F0024A6033EC
:108B400042F82300704700BF00E100E0F8B504469A
:108B50000D4690F82B3081B173B990F82C60FDF779
:108B6000F5FE05460121304601F036FA2846FDF7AC
:108B7000F1FE012384F82B30F8BD002BFCD090F8D7
:108B80002C70FDF7E3FE06462946384601F024FA2C
:108B90003046FDF7DFFE84F82B50EDE770B5044654
:108BA0000568FFF7B5FE844202D10020FFF7A4FE5E
:108BB00095F92800FFF7BAFF95F92830002B0DDB57
:108BC00001215A0903F01F0301FA03F3144920326B
:108BD00041F82230BFF34F8FBFF36F8F95F9290013
:108BE000FFF7A4FF95F92930002B0DDB01215A096D
:108BF00003F01F0301FA03F30949203241F8223040
:108C0000BFF34F8FBFF36F8F00232846C4E90033B3
:108C1000C4E90433A360EB68BDE87040184700BFA7
:108C200000E100E02DE9F047044616460D4690F8B5
:108C30002480FDF79AFE94F82A2003469AB1FDF7A6
:108C40009AFE94F82D90FDF781FE074601214846D3
:108C500001F0C2F93846FDF77DFEFDF786FE0022E1
:108C6000034684F82A201846FDF785FE2E44B8F105
:108C7000000F23D1AE4205D1204663680121BDE833
:108C8000F047184794F82630002BF3D0204623688D
:108C900015F8011B98470028ECD0BDE8F08794F840
:108CA00026305BB12B780A2B03D10D212046236897
:108CB00098472046236815F8011B9847AE42EED12D
:108CC000DAE72DE9F7434FF00009044690461E46C7
:108CD000C3F800904F1E3368434505D2FDF745FEAB
:108CE000A269C2B9FDF747FE94F827305BB911239A
:108CF000012220460DF107018DF80730FFF792FFA2
:108D0000012384F827303368002B0CBF1B20002080
:108D100003B0BDE8F083E16922698A5C07F8012F9E
:108D20002569226A0135954208BF4D46A269256131
:108D3000013AA261FDF71FFEA368204698473368F9
:108D400001333360C7E708B5FFF76CFF002008BDAB
:108D5000F8B51F46536806460C461546002B5BD0F7
:108D60009368002B5AD030220021204626F089FC3F
:108D70006B682B4AE361AB68204623622B7B84F847
:108D80002430AB7B276084F8253040F20113E38464
:108D9000069B00276360079BA360089BE3602B781A
:108DA00084F828306B7884F829301E4B3460736067
:108DB0001D4BB3601D4B33611D4B73611D4BF36045
:108DC0001D4B3362012384F82E30B2611B4AF261DD
:108DD0009DF8282084F82D209DF8242084F82A303E
:108DE00084F82C20697B84F82B70FFF7AFFE95F98F
:108DF0000100FFF79BFE95F90100FFF789FE95F949
:108E00000000FFF793FE95F90000FFF781FE304662
:108E1000FFF772FD3846F8BD2220FCE72120FAE773
:108E20004D8B0000478D0000C38C0000FD8A0000C0
:108E3000038B00009D8B0000E18A0000098B00007D
:108E400010B50446FDF791FDA269236A9A4203D248
:108E5000FDF791FD012010BDFDF78DFD0020FAE723
:108E600037B504460D4600E000BFFDF77EFD94F8DF
:108E7000253002466BB1132D07D1002384F826302C
:108E800003B0BDE83040FDF776BD112D01D10123BF
:108E9000F4E76369E1691046CD54A1696369013162
:108EA000A161216A01338B42636104BF00236361C6
:108EB000FDF761FD042384F82E3094F825307BB152
:108EC000A269236A9A420BD11323012220460DF195
:108ED00007018DF80730FFF7A5FE002384F827303F
:108EE00003B030BD90F82A3073B5044603F0FF019B
:108EF000A3B9436801919847012384F82A3094F874
:108F00002D60FDF723FD05460199304601F064F818
:108F10002846FDF71FFD022384F82E3002B070BDF5
:108F2000026BD36C43F00403D364704710B504465E
:108F3000026B93695906FCD5002394F836101A4643
:108F400094F83500FDF7B8FD002394F838101A4660
:108F500094F83700FDF7B0FD94F83D30DA0707D5F7
:108F6000002394F83A101A4694F83900FDF7A4FD4E
:108F700094F83D309B0707D5002394F83C101A461F
:108F800094F83B00FDF798FD206B0021FEF7D4F824
:108F9000002010BD08B5006BFEF79CF9002008BD4D
:108FA000036BDA6C19B142F00102DA64704722F007
:108FB0000102DA64012203F500539A64704700004D
:108FC0002DE9F0414FF001081C46574B86B0029343
:108FD000564B0C9D0193564B174600930A46CDE91C
:108FE00003882946534BFFF7B3FE0646002875D188
:108FF000236804222B63237985F83430A17985F81E
:109000003610607985F83500237A85F83830E379B1
:1090100085F83730A37A85F83A30637A85F83930A5
:10902000237B85F83C30E37A85F83B304346FDF7F7
:1090300043FD43460222217AE079FDF73DFD3E7073
:1090400039462068FEF7BEF81421627B3A4B03EBE9
:109050004210C0F8AC1594F806C061792E3203EBCB
:10906000421341EA0C415960227AE37943EA024310
:10907000C0F8BC3585F83D607B7E032B52D8DFE815
:1090800003F01F02314C0123002785F83D300023F7
:109090000222A17A607AFDF70FFDA17A627A637BE2
:1090A00042EA014241F2B4515B0103F1A04303F5EE
:1090B00070335A500422236803F58053DA65A7B948
:1090C0006379052185F83530A37985F83630206835
:1090D000C36C43F00403C364FEF72EF8304606B0B9
:1090E000BDE8F081022385F83D3000230422217B76
:1090F000E07AFDF7E1FC41F2AC520221637B5B01B7
:1091000003F1A04303F570339950217BE27A42EAE0
:10911000014241F2B8515A50D2E70323012785F8A2
:109120003D30B4E72326D9E72D8F0000218F0000C2
:10913000A18F0000958F000000C00350036B10B595
:109140009B690446190609D5FFF77AFEB0B1206B7A
:10915000FEF7BAF801462046FFF782FE236B9A6CB1
:10916000D20711D5012103F5005291649B699B063A
:109170000AD52046BDE81040FFF7B4BE226BD36C81
:1091800023F00403D364E9E710BD000007B501F044
:10919000D7FB6A4601F062FC18B15221034800F087
:1091A00007FBDDE9000103B05DF804FBA841030003
:1091B00008B5FFF7EBFF80B208BD08B5FFF7E6FF83
:1091C00008BD08B5FFF7F9FFFA23B0FBF3F080B252
:1091D00008BD012070470420704701F0DDBB00008E
:1091E00008B501F0ADFA18B17A21024800F0E0FAB2
:1091F000002008BDA841030008B500F03DFA0E4A62
:10920000536A43F470235362EFF308834FF0CD3178
:109210000A4A043B93420BD20222094B1A6700F020
:1092200071FCFFF7DDFFBDE808400648FEF76EB8A9
:1092300043F80419EEE700BF00ED00E00000002055
:1092400000400050A43E030040F2016000F092BADA
:109250007047704708B510B1FFF7FAFF08BDFFF778
:10926000F8FFFBE7704770477047032000F03DBCF4
:109270000120704707B5042200200DEB02010EF01B
:10928000D7FA042804D04FF4BF71044800F090FAD4
:10929000019800F0D3FB03B05DF804FBA841030084
:1092A0000020704749BA89B24840C0F303134340D5
:1092B000180380B258405B0103F4FF5358407047D5
:1092C00042DE70472DE9F0470025144C144FDFF8BB
:1092D0005890DFF8588022464946002057F8043B52
:1092E000EEB2FFF763FB2378A2460134002BFAD1DC
:1092F0009AF801307BB10B4906F00306032E08BF34
:1093000041460020FFF752FB9AF801300135002B4F
:10931000E1D1BDE8F0874146F3E700BF7C4E030092
:1093200000100020CD7903001A4203009645030087
:1093300040F605226A4B2DE9F0411B8893420ED876
:10934000B3F5206F0DD840F20252934218D040F28C
:109350000172934220D040F2015293420AD0BDE8FC
:10936000F081A3F602235F4C032B1ED8DFE803F045
:10937000376396B25C490020BDE8F041FFF716BBA9
:1093800000205A49FFF712FB564B1A6C0020BDE82B
:10939000F0415749FFF70ABB524A0020D2E9242383
:1093A000BDE8F0415349FFF701BB00205249FFF7E8
:1093B000FDFA94F868309E0703D500204F49FFF767
:1093C000F5FA94F86B305D0603D500204C49FFF7A1
:1093D000EDFA94F96B30002BC1DA4A49CBE7002053
:1093E0004949FFF7E3FA94F86430980704D0002065
:1093F000226C3F49FFF7DAFA94F96430002B04DA63
:109400000020226F4149FFF7D1FA00250126404F85
:10941000DFF80881626E06FA05F3134207D057F8A9
:10942000252013781BB141460020FFF7BFFA013514
:10943000082DEFD193E737490020FFF7B7FA2C4901
:109440000020226CFFF7B2FA94F86530590703D573
:1094500000203149FFF7AAFA94F96530002B04DAAD
:109460000020226F2949FFF7A1FA0825284E2B4F2B
:10947000636EEB40DA0707D556F8252013781BB149
:1094800039460020FFF792FA0135102DF0D194F8FB
:10949000640000287FF463AF21496DE72149002073
:1094A000FFF784FA0020226C1149FFF77FFA10259C
:1094B000174E1A4F636EEB40DB0707D556F8252091
:1094C00013781BB139460020FFF770FA01351A2DC9
:1094D000F0D144E700201449FFF768FA226C55E701
:1094E000A824002000100020234203006142030052
:1094F00092420300AC420300C7420300E042030073
:109500001B4303004F4303008C430300B24303009B
:10951000F04C0300D8430300F0430300CF430300A3
:109520003744030068440300824403002DE9F04FF0
:10953000434C85B0636BD4F83CA05A0744BF002667
:10954000B046D4F84CB05FBFD4F838A0D4F848B0D7
:10955000D4F850803B4E54BFDFF81091DFF81091E3
:1095600013F0080F384B394A18BF1A46B6EB0807F4
:109570001FBF64237D0803FB0B55B5FBF7F50CBF3C
:109580003D46ADB24B4632490020CDE9016ACDF8E7
:109590000080BFB2FFF70AFA2B460020CDE9009702
:1095A0002C491FFA8BF2FFF701FAB24501D8C245E8
:1095B00004D24A4600202849FFF7F8F9D4E91703F6
:1095C00018433AD000202549FFF7F0F9002501267D
:1095D000234FDFF8A080E26D06FA05F3134207D0AF
:1095E00057F8252013781BB141460020FFF7DEF91C
:1095F0000135202DEFD100250126194FDFF87480A9
:10960000226E06FA05F3134209D007EB8503D3F85F
:10961000802013781BB141460020FFF7C7F90135C0
:109620001D2DEDD100200F49FFF7C0F900200D4995
:1096300005B0BDE8F04FFFF7B9B90B49F4E700BF3B
:109640000010002000100020A9440300B0440300D3
:10965000B8440300E74403002145030040450300EC
:10966000884D0300185B030070450300A444030009
:109670001D6E03008654030010B5FDF749FC044637
:10968000FDF740FC0022012101FA02F3234018D02B
:10969000204B214933F81230062B18D040F2072214
:1096A000934211D14FF000524FF20F005488844280
:1096B0000AD11088984207D14CF23C33538008807D
:1096C00010BD0132102ADFD1134A138012E04FF08F
:1096D00000534FF20F025888904218D11B88B3F5FF
:1096E000406F28BF4FF4C0630B804CF23C324FF008
:1096F00000535A80084B1A8840F201739A4201BF06
:10970000064B074AD2E90001C3E90001D8E74FF44C
:10971000C063E9E7484F0300A8240020A0240020EC
:1097200090100020014B1888704700BFA82400202B
:10973000014B1888000A7047A8240020044B0548F4
:109740001B881A0AB3F5406F38BF00EB82007047E0
:10975000A8240020684F0300044B1888044B020A19
:1097600053F82230C0B203EB80007047A8240020D9
:10977000584D030010B50446FDF7EFF84FF00053C5
:109780004FF20F021C805A80BFF35F8FBFF34F8FE1
:109790000549064BCA6802F4E0621343CB60BFF38D
:1097A0004F8F00BFFDE700BF00ED00E00400FA05A9
:1097B00038B504460D4600F0A6F9FDF7CEF82B4665
:1097C000224605490020FFF7F1F829462046BDE86A
:1097D0003840FFF775BD00BF864503006C4A2DE990
:1097E000F0416C4B55686C4C5D65516A99656B49ED
:1097F000D1F80002D865D1F80412586B1966916A45
:1098000010F0040F5966D16A4FF000009966116B91
:10981000D966516B1967D26BD8645A67D3E90E21A8
:1098200008BF11465E4A91421A655DD301F12000DE
:10983000A04259D88869C5F308051864CE69062D79
:109840005E6455D1574DA84252D3574DA8424FD2CE
:1098500005884DF6426085424AD11868C3F89000E9
:109860005868C3F8940040F20170A242154604D231
:109870002E680432B6F1CD3FF7D00022C3E91E2294
:10988000C3E92022C3E92222641B434EDFF814C13E
:10989000DFF814E19C648E422DD8D3E91EC7D3E9CA
:1098A0002065D3E922414FF0000E013AD2B2FF2ADF
:1098B0003DD1BEF1000F05D0C3E91EC7C3E9206545
:1098C000C3E92241B3F85430C3F308030C2B3CD84E
:1098D000022B52D9DA1E092A4FD8DFE802F055329E
:1098E00041444E4E4E4E4E4B0021C3E910112C49BF
:1098F0004FF42060B9E756F8044D6445CBD3744566
:10990000C9D2E507C7D50625284F57F8048BA045CF
:10991000C1D0013D15F0FF05F7D10AB9052201E0DC
:10992000013AD2B202F11E0543F82540B3E7E04602
:109930004FF0010EBC4637462E4625460C464146A2
:10994000B3E740F60220BDE8F0813B2B15D1184B60
:109950009B6913F0020F40F2025318BF1846F2E75A
:1099600040F60320EFE740F60423B0F5206F08BF70
:109970001846E8E740F60520E5E740F60722013BF8
:109980004B2B98BF1046DEE740F60120DBE700BF17
:1099900000ED00E0001000200010002000E100E0D9
:1099A00000000020344100002CFF0200781000204D
:1099B0000080015A00F00CB800F00AB800F008B8B6
:1099C00000F006B800F004B800F002B800F000B8EB
:1099D00072B61EF0080F09D01EF0040F0DD0DFF88C
:1099E00050E0AEE8FF1F6FF002000CE0DFF840E04F
:1099F000AEE8FF1F6FF00E0005E0DFF834E0AEE8E0
:109A0000FF1F6FF006006946EFF309828EE807003A
:109A100086460848084C854501D3A54501D384F303
:109A20000888FFF7DBFE84F30888FFF7A3FE000039
:109A300000100020400000200010002082B2074BE0
:109A40004AB1000C1A8008BF4FF6CE22044B14BF57
:109A500018801A8070474BF6EF62F2E72C11002055
:109A60002E1100200B4BB3F900201888002AB8BF34
:109A700080F0620042001A80074AB2F90010138891
:109A80000029BCBF83F4805383F00B03590011807D
:109A9000584070472C1100202E11002008B501F00D
:109AA000B7F960B10A4B0344072B0DD8072B0BD82D
:109AB000DFE803F004060A080A0A0A0CC22008BDFF
:109AC000C320FCE7C420FAE7C520F8E7C120F6E789
:109AD000FF1FFF0F10B404460846114622465DF8EA
